{
  "_format": "hh-sol-artifact-1",
  "contractName": "BadgeNFT",
  "sourceName": "contracts/BadgeNFT.sol",
  "abi": [
    {
      "inputs": [],
      "stateMutability": "nonpayable",
      "type": "constructor"
    },
    {
      "anonymous": false,
      "inputs": [
        {
          "indexed": true,
          "internalType": "address",
          "name": "owner",
          "type": "address"
        },
        {
          "indexed": true,
          "internalType": "address",
          "name": "approved",
          "type": "address"
        },
        {
          "indexed": true,
          "internalType": "uint256",
          "name": "tokenId",
          "type": "uint256"
        }
      ],
      "name": "Approval",
      "type": "event"
    },
    {
      "anonymous": false,
      "inputs": [
        {
          "indexed": true,
          "internalType": "address",
          "name": "owner",
          "type": "address"
        },
        {
          "indexed": true,
          "internalType": "address",
          "name": "operator",
          "type": "address"
        },
        {
          "indexed": false,
          "internalType": "bool",
          "name": "approved",
          "type": "bool"
        }
      ],
      "name": "ApprovalForAll",
      "type": "event"
    },
    {
      "anonymous": false,
      "inputs": [
        {
          "indexed": true,
          "internalType": "uint256",
          "name": "tokenId",
          "type": "uint256"
        },
        {
          "indexed": true,
          "internalType": "address",
          "name": "owner",
          "type": "address"
        },
        {
          "indexed": false,
          "internalType": "string",
          "name": "category",
          "type": "string"
        },
        {
          "indexed": false,
          "internalType": "uint256",
          "name": "level",
          "type": "uint256"
        },
        {
          "indexed": false,
          "internalType": "uint256",
          "name": "timestamp",
          "type": "uint256"
        }
      ],
      "name": "BadgeMinted",
      "type": "event"
    },
    {
      "anonymous": false,
      "inputs": [
        {
          "indexed": true,
          "internalType": "address",
          "name": "previousOwner",
          "type": "address"
        },
        {
          "indexed": true,
          "internalType": "address",
          "name": "newOwner",
          "type": "address"
        }
      ],
      "name": "OwnershipTransferred",
      "type": "event"
    },
    {
      "anonymous": false,
      "inputs": [
        {
          "indexed": true,
          "internalType": "address",
          "name": "from",
          "type": "address"
        },
        {
          "indexed": true,
          "internalType": "address",
          "name": "to",
          "type": "address"
        },
        {
          "indexed": true,
          "internalType": "uint256",
          "name": "tokenId",
          "type": "uint256"
        }
      ],
      "name": "Transfer",
      "type": "event"
    },
    {
      "inputs": [
        {
          "internalType": "address",
          "name": "to",
          "type": "address"
        },
        {
          "internalType": "uint256",
          "name": "tokenId",
          "type": "uint256"
        }
      ],
      "name": "approve",
      "outputs": [],
      "stateMutability": "nonpayable",
      "type": "function"
    },
    {
      "inputs": [
        {
          "internalType": "address",
          "name": "owner",
          "type": "address"
        }
      ],
      "name": "balanceOf",
      "outputs": [
        {
          "internalType": "uint256",
          "name": "",
          "type": "uint256"
        }
      ],
      "stateMutability": "view",
      "type": "function"
    },
    {
      "inputs": [
        {
          "internalType": "uint256",
          "name": "tokenId",
          "type": "uint256"
        }
      ],
      "name": "getApproved",
      "outputs": [
        {
          "internalType": "address",
          "name": "",
          "type": "address"
        }
      ],
      "stateMutability": "view",
      "type": "function"
    },
    {
      "inputs": [
        {
          "internalType": "uint256",
          "name": "tokenId",
          "type": "uint256"
        }
      ],
      "name": "getBadge",
      "outputs": [
        {
          "components": [
            {
              "internalType": "uint256",
              "name": "id",
              "type": "uint256"
            },
            {
              "internalType": "string",
              "name": "category",
              "type": "string"
            },
            {
              "internalType": "uint256",
              "name": "level",
              "type": "uint256"
            },
            {
              "internalType": "uint256",
              "name": "timestamp",
              "type": "uint256"
            }
          ],
          "internalType": "struct BadgeNFT.Badge",
          "name": "",
          "type": "tuple"
        }
      ],
      "stateMutability": "view",
      "type": "function"
    },
    {
      "inputs": [
        {
          "internalType": "address",
          "name": "user",
          "type": "address"
        }
      ],
      "name": "getUserBadges",
      "outputs": [
        {
          "components": [
            {
              "internalType": "uint256",
              "name": "id",
              "type": "uint256"
            },
            {
              "internalType": "string",
              "name": "category",
              "type": "string"
            },
            {
              "internalType": "uint256",
              "name": "level",
              "type": "uint256"
            },
            {
              "internalType": "uint256",
              "name": "timestamp",
              "type": "uint256"
            }
          ],
          "internalType": "struct BadgeNFT.Badge[]",
          "name": "",
          "type": "tuple[]"
        }
      ],
      "stateMutability": "view",
      "type": "function"
    },
    {
      "inputs": [
        {
          "internalType": "address",
          "name": "owner",
          "type": "address"
        },
        {
          "internalType": "address",
          "name": "operator",
          "type": "address"
        }
      ],
      "name": "isApprovedForAll",
      "outputs": [
        {
          "internalType": "bool",
          "name": "",
          "type": "bool"
        }
      ],
      "stateMutability": "view",
      "type": "function"
    },
    {
      "inputs": [
        {
          "internalType": "address",
          "name": "to",
          "type": "address"
        },
        {
          "internalType": "string",
          "name": "category",
          "type": "string"
        },
        {
          "internalType": "uint256",
          "name": "level",
          "type": "uint256"
        },
        {
          "internalType": "string",
          "name": "uri",
          "type": "string"
        }
      ],
      "name": "mintBadge",
      "outputs": [
        {
          "internalType": "uint256",
          "name": "",
          "type": "uint256"
        }
      ],
      "stateMutability": "nonpayable",
      "type": "function"
    },
    {
      "inputs": [],
      "name": "name",
      "outputs": [
        {
          "internalType": "string",
          "name": "",
          "type": "string"
        }
      ],
      "stateMutability": "view",
      "type": "function"
    },
    {
      "inputs": [],
      "name": "owner",
      "outputs": [
        {
          "internalType": "address",
          "name": "",
          "type": "address"
        }
      ],
      "stateMutability": "view",
      "type": "function"
    },
    {
      "inputs": [
        {
          "internalType": "uint256",
          "name": "tokenId",
          "type": "uint256"
        }
      ],
      "name": "ownerOf",
      "outputs": [
        {
          "internalType": "address",
          "name": "",
          "type": "address"
        }
      ],
      "stateMutability": "view",
      "type": "function"
    },
    {
      "inputs": [],
      "name": "renounceOwnership",
      "outputs": [],
      "stateMutability": "nonpayable",
      "type": "function"
    },
    {
      "inputs": [
        {
          "internalType": "address",
          "name": "from",
          "type": "address"
        },
        {
          "internalType": "address",
          "name": "to",
          "type": "address"
        },
        {
          "internalType": "uint256",
          "name": "tokenId",
          "type": "uint256"
        }
      ],
      "name": "safeTransferFrom",
      "outputs": [],
      "stateMutability": "nonpayable",
      "type": "function"
    },
    {
      "inputs": [
        {
          "internalType": "address",
          "name": "from",
          "type": "address"
        },
        {
          "internalType": "address",
          "name": "to",
          "type": "address"
        },
        {
          "internalType": "uint256",
          "name": "tokenId",
          "type": "uint256"
        },
        {
          "internalType": "bytes",
          "name": "data",
          "type": "bytes"
        }
      ],
      "name": "safeTransferFrom",
      "outputs": [],
      "stateMutability": "nonpayable",
      "type": "function"
    },
    {
      "inputs": [
        {
          "internalType": "address",
          "name": "operator",
          "type": "address"
        },
        {
          "internalType": "bool",
          "name": "approved",
          "type": "bool"
        }
      ],
      "name": "setApprovalForAll",
      "outputs": [],
      "stateMutability": "nonpayable",
      "type": "function"
    },
    {
      "inputs": [
        {
          "internalType": "bytes4",
          "name": "interfaceId",
          "type": "bytes4"
        }
      ],
      "name": "supportsInterface",
      "outputs": [
        {
          "internalType": "bool",
          "name": "",
          "type": "bool"
        }
      ],
      "stateMutability": "view",
      "type": "function"
    },
    {
      "inputs": [],
      "name": "symbol",
      "outputs": [
        {
          "internalType": "string",
          "name": "",
          "type": "string"
        }
      ],
      "stateMutability": "view",
      "type": "function"
    },
    {
      "inputs": [
        {
          "internalType": "uint256",
          "name": "tokenId",
          "type": "uint256"
        }
      ],
      "name": "tokenURI",
      "outputs": [
        {
          "internalType": "string",
          "name": "",
          "type": "string"
        }
      ],
      "stateMutability": "view",
      "type": "function"
    },
    {
      "inputs": [
        {
          "internalType": "address",
          "name": "from",
          "type": "address"
        },
        {
          "internalType": "address",
          "name": "to",
          "type": "address"
        },
        {
          "internalType": "uint256",
          "name": "tokenId",
          "type": "uint256"
        }
      ],
      "name": "transferFrom",
      "outputs": [],
      "stateMutability": "nonpayable",
      "type": "function"
    },
    {
      "inputs": [
        {
          "internalType": "address",
          "name": "newOwner",
          "type": "address"
        }
      ],
      "name": "transferOwnership",
      "outputs": [],
      "stateMutability": "nonpayable",
      "type": "function"
    }
  ],
  "bytecode": "0x60806040523480156200001157600080fd5b506040518060400160405280601081526020017f4d61746857697a617264204261646765000000000000000000000000000000008152506040518060400160405280600381526020017f4d5742000000000000000000000000000000000000000000000000000000000081525081600090816200008f919062000412565b508060019081620000a1919062000412565b505050620000c4620000b8620000ca60201b60201c565b620000d260201b60201c565b620004f9565b600033905090565b6000600760009054906101000a900473ffffffffffffffffffffffffffffffffffffffff16905081600760006101000a81548173ffffffffffffffffffffffffffffffffffffffff021916908373ffffffffffffffffffffffffffffffffffffffff1602179055508173ffffffffffffffffffffffffffffffffffffffff168173ffffffffffffffffffffffffffffffffffffffff167f8be0079c531659141344cd1fd0a4f28419497f9722a3daafe3b4186f6b6457e060405160405180910390a35050565b600081519050919050565b7f4e487b7100000000000000000000000000000000000000000000000000000000600052604160045260246000fd5b7f4e487b7100000000000000000000000000000000000000000000000000000000600052602260045260246000fd5b600060028204905060018216806200021a57607f821691505b60208210810362000230576200022f620001d2565b5b50919050565b60008190508160005260206000209050919050565b60006020601f8301049050919050565b600082821b905092915050565b6000600883026200029a7fffffffffffffffffffffffffffffffffffffffffffffffffffffffffffffffff826200025b565b620002a686836200025b565b95508019841693508086168417925050509392505050565b6000819050919050565b6000819050919050565b6000620002f3620002ed620002e784620002be565b620002c8565b620002be565b9050919050565b6000819050919050565b6200030f83620002d2565b620003276200031e82620002fa565b84845462000268565b825550505050565b600090565b6200033e6200032f565b6200034b81848462000304565b505050565b5b8181101562000373576200036760008262000334565b60018101905062000351565b5050565b601f821115620003c2576200038c8162000236565b62000397846200024b565b81016020851015620003a7578190505b620003bf620003b6856200024b565b83018262000350565b50505b505050565b600082821c905092915050565b6000620003e760001984600802620003c7565b1980831691505092915050565b6000620004028383620003d4565b9150826002028217905092915050565b6200041d8262000198565b67ffffffffffffffff811115620004395762000438620001a3565b5b62000445825462000201565b6200045282828562000377565b600060209050601f8311600181146200048a576000841562000475578287015190505b620004818582620003f4565b865550620004f1565b601f1984166200049a8662000236565b60005b82811015620004c4578489015182556001820191506020850194506020810190506200049d565b86831015620004e45784890151620004e0601f891682620003d4565b8355505b6001600288020188555050505b505050505050565b61378380620005096000396000f3fe608060405234801561001057600080fd5b50600436106101215760003560e01c8063715018a6116100ad578063b88d4fde11610071578063b88d4fde1461031a578063c87b56dd14610336578063e985e9c514610366578063ea278db414610396578063f2fde38b146103c657610121565b8063715018a6146102885780638d838622146102925780638da5cb5b146102c257806395d89b41146102e0578063a22cb465146102fe57610121565b806323b872dd116100f457806323b872dd146101c057806337c245fe146101dc57806342842e0e1461020c5780636352211e1461022857806370a082311461025857610121565b806301ffc9a71461012657806306fdde0314610156578063081812fc14610174578063095ea7b3146101a4575b600080fd5b610140600480360381019061013b91906121c0565b6103e2565b60405161014d9190612208565b60405180910390f35b61015e6104c4565b60405161016b91906122b3565b60405180910390f35b61018e6004803603810190610189919061230b565b610556565b60405161019b9190612379565b60405180910390f35b6101be60048036038101906101b991906123c0565b61059c565b005b6101da60048036038101906101d59190612400565b6106b3565b005b6101f660048036038101906101f19190612453565b610713565b60405161020391906125fe565b60405180910390f35b61022660048036038101906102219190612400565b6108ea565b005b610242600480360381019061023d919061230b565b61090a565b60405161024f9190612379565b60405180910390f35b610272600480360381019061026d9190612453565b610990565b60405161027f919061262f565b60405180910390f35b610290610a47565b005b6102ac60048036038101906102a7919061230b565b610a5b565b6040516102b991906126ad565b60405180910390f35b6102ca610b38565b6040516102d79190612379565b60405180910390f35b6102e8610b62565b6040516102f591906122b3565b60405180910390f35b610318600480360381019061031391906126fb565b610bf4565b005b610334600480360381019061032f9190612870565b610c0a565b005b610350600480360381019061034b919061230b565b610c6c565b60405161035d91906122b3565b60405180910390f35b610380600480360381019061037b91906128f3565b610d7e565b60405161038d9190612208565b60405180910390f35b6103b060048036038101906103ab91906129d4565b610e12565b6040516103bd919061262f565b60405180910390f35b6103e060048036038101906103db9190612453565b610f7e565b005b60007f80ac58cd000000000000000000000000000000000000000000000000000000007bffffffffffffffffffffffffffffffffffffffffffffffffffffffff1916827bffffffffffffffffffffffffffffffffffffffffffffffffffffffff191614806104ad57507f5b5e139f000000000000000000000000000000000000000000000000000000007bffffffffffffffffffffffffffffffffffffffffffffffffffffffff1916827bffffffffffffffffffffffffffffffffffffffffffffffffffffffff1916145b806104bd57506104bc82611001565b5b9050919050565b6060600080546104d390612aa2565b80601f01602080910402602001604051908101604052809291908181526020018280546104ff90612aa2565b801561054c5780601f106105215761010080835404028352916020019161054c565b820191906000526020600020905b81548152906001019060200180831161052f57829003601f168201915b5050505050905090565b60006105618261106b565b6004600083815260200190815260200160002060009054906101000a900473ffffffffffffffffffffffffffffffffffffffff169050919050565b60006105a78261090a565b90508073ffffffffffffffffffffffffffffffffffffffff168373ffffffffffffffffffffffffffffffffffffffff1603610617576040517f08c379a000000000000000000000000000000000000000000000000000000000815260040161060e90612b45565b60405180910390fd5b8073ffffffffffffffffffffffffffffffffffffffff166106366110b6565b73ffffffffffffffffffffffffffffffffffffffff16148061066557506106648161065f6110b6565b610d7e565b5b6106a4576040517f08c379a000000000000000000000000000000000000000000000000000000000815260040161069b90612bd7565b60405180910390fd5b6106ae83836110be565b505050565b6106c46106be6110b6565b82611177565b610703576040517f08c379a00000000000000000000000000000000000000000000000000000000081526004016106fa90612c69565b60405180910390fd5b61070e83838361120c565b505050565b60606000600a60008473ffffffffffffffffffffffffffffffffffffffff1673ffffffffffffffffffffffffffffffffffffffff16815260200190815260200160002090506000818054905067ffffffffffffffff81111561077857610777612745565b5b6040519080825280602002602001820160405280156107b157816020015b61079e61212c565b8152602001906001900390816107965790505b50905060005b82805490508110156108df57600960008483815481106107da576107d9612c89565b5b906000526020600020015481526020019081526020016000206040518060800160405290816000820154815260200160018201805461081890612aa2565b80601f016020809104026020016040519081016040528092919081815260200182805461084490612aa2565b80156108915780601f1061086657610100808354040283529160200191610891565b820191906000526020600020905b81548152906001019060200180831161087457829003601f168201915b50505050508152602001600282015481526020016003820154815250508282815181106108c1576108c0612c89565b5b602002602001018190525080806108d790612ce7565b9150506107b7565b508092505050919050565b61090583838360405180602001604052806000815250610c0a565b505050565b60008061091683611505565b9050600073ffffffffffffffffffffffffffffffffffffffff168173ffffffffffffffffffffffffffffffffffffffff1603610987576040517f08c379a000000000000000000000000000000000000000000000000000000000815260040161097e90612d7b565b60405180910390fd5b80915050919050565b60008073ffffffffffffffffffffffffffffffffffffffff168273ffffffffffffffffffffffffffffffffffffffff1603610a00576040517f08c379a00000000000000000000000000000000000000000000000000000000081526004016109f790612e0d565b60405180910390fd5b600360008373ffffffffffffffffffffffffffffffffffffffff1673ffffffffffffffffffffffffffffffffffffffff168152602001908152602001600020549050919050565b610a4f611542565b610a5960006115c0565b565b610a6361212c565b6009600083815260200190815260200160002060405180608001604052908160008201548152602001600182018054610a9b90612aa2565b80601f0160208091040260200160405190810160405280929190818152602001828054610ac790612aa2565b8015610b145780601f10610ae957610100808354040283529160200191610b14565b820191906000526020600020905b815481529060010190602001808311610af757829003601f168201915b50505050508152602001600282015481526020016003820154815250509050919050565b6000600760009054906101000a900473ffffffffffffffffffffffffffffffffffffffff16905090565b606060018054610b7190612aa2565b80601f0160208091040260200160405190810160405280929190818152602001828054610b9d90612aa2565b8015610bea5780601f10610bbf57610100808354040283529160200191610bea565b820191906000526020600020905b815481529060010190602001808311610bcd57829003601f168201915b5050505050905090565b610c06610bff6110b6565b8383611686565b5050565b610c1b610c156110b6565b83611177565b610c5a576040517f08c379a0000000000000000000000000000000000000000000000000000000008152600401610c5190612c69565b60405180910390fd5b610c66848484846117f2565b50505050565b6060610c778261106b565b6000600660008481526020019081526020016000208054610c9790612aa2565b80601f0160208091040260200160405190810160405280929190818152602001828054610cc390612aa2565b8015610d105780601f10610ce557610100808354040283529160200191610d10565b820191906000526020600020905b815481529060010190602001808311610cf357829003601f168201915b505050505090506000610d2161184e565b90506000815103610d36578192505050610d79565b600082511115610d6b578082604051602001610d53929190612e69565b60405160208183030381529060405292505050610d79565b610d7484611865565b925050505b919050565b6000600560008473ffffffffffffffffffffffffffffffffffffffff1673ffffffffffffffffffffffffffffffffffffffff16815260200190815260200160002060008373ffffffffffffffffffffffffffffffffffffffff1673ffffffffffffffffffffffffffffffffffffffff16815260200190815260200160002060009054906101000a900460ff16905092915050565b6000610e1c611542565b610e2660086118cd565b6000610e3260086118e3565b905060006040518060800160405280838152602001878152602001868152602001428152509050610e6387836118f1565b610e6d828561190f565b8060096000848152602001908152602001600020600082015181600001556020820151816001019081610ea09190613039565b506040820151816002015560608201518160030155905050600a60008873ffffffffffffffffffffffffffffffffffffffff1673ffffffffffffffffffffffffffffffffffffffff1681526020019081526020016000208290806001815401808255809150506001900390600052602060002001600090919091909150558673ffffffffffffffffffffffffffffffffffffffff16827f7bccc65a5a51f6cc9635bc4e1688f42ec2369a4a455816f0848d170029ce50d6888842604051610f699392919061310b565b60405180910390a38192505050949350505050565b610f86611542565b600073ffffffffffffffffffffffffffffffffffffffff168173ffffffffffffffffffffffffffffffffffffffff1603610ff5576040517f08c379a0000000000000000000000000000000000000000000000000000000008152600401610fec906131bb565b60405180910390fd5b610ffe816115c0565b50565b60007f01ffc9a7000000000000000000000000000000000000000000000000000000007bffffffffffffffffffffffffffffffffffffffffffffffffffffffff1916827bffffffffffffffffffffffffffffffffffffffffffffffffffffffff1916149050919050565b6110748161197c565b6110b3576040517f08c379a00000000000000000000000000000000000000000000000000000000081526004016110aa90612d7b565b60405180910390fd5b50565b600033905090565b816004600083815260200190815260200160002060006101000a81548173ffffffffffffffffffffffffffffffffffffffff021916908373ffffffffffffffffffffffffffffffffffffffff160217905550808273ffffffffffffffffffffffffffffffffffffffff166111318361090a565b73ffffffffffffffffffffffffffffffffffffffff167f8c5be1e5ebec7d5bd14f71427d1e84f3dd0314c0f7b2291e5b200ac8c7c3b92560405160405180910390a45050565b6000806111838361090a565b90508073ffffffffffffffffffffffffffffffffffffffff168473ffffffffffffffffffffffffffffffffffffffff1614806111c557506111c48185610d7e565b5b8061120357508373ffffffffffffffffffffffffffffffffffffffff166111eb84610556565b73ffffffffffffffffffffffffffffffffffffffff16145b91505092915050565b8273ffffffffffffffffffffffffffffffffffffffff1661122c8261090a565b73ffffffffffffffffffffffffffffffffffffffff1614611282576040517f08c379a00000000000000000000000000000000000000000000000000000000081526004016112799061324d565b60405180910390fd5b600073ffffffffffffffffffffffffffffffffffffffff168273ffffffffffffffffffffffffffffffffffffffff16036112f1576040517f08c379a00000000000000000000000000000000000000000000000000000000081526004016112e8906132df565b60405180910390fd5b6112fe83838360016119bd565b8273ffffffffffffffffffffffffffffffffffffffff1661131e8261090a565b73ffffffffffffffffffffffffffffffffffffffff1614611374576040517f08c379a000000000000000000000000000000000000000000000000000000000815260040161136b9061324d565b60405180910390fd5b6004600082815260200190815260200160002060006101000a81549073ffffffffffffffffffffffffffffffffffffffff02191690556001600360008573ffffffffffffffffffffffffffffffffffffffff1673ffffffffffffffffffffffffffffffffffffffff168152602001908152602001600020600082825403925050819055506001600360008473ffffffffffffffffffffffffffffffffffffffff1673ffffffffffffffffffffffffffffffffffffffff16815260200190815260200160002060008282540192505081905550816002600083815260200190815260200160002060006101000a81548173ffffffffffffffffffffffffffffffffffffffff021916908373ffffffffffffffffffffffffffffffffffffffff160217905550808273ffffffffffffffffffffffffffffffffffffffff168473ffffffffffffffffffffffffffffffffffffffff167fddf252ad1be2c89b69c2b068fc378daa952ba7f163c4a11628f55a4df523b3ef60405160405180910390a46115008383836001611ae3565b505050565b60006002600083815260200190815260200160002060009054906101000a900473ffffffffffffffffffffffffffffffffffffffff169050919050565b61154a6110b6565b73ffffffffffffffffffffffffffffffffffffffff16611568610b38565b73ffffffffffffffffffffffffffffffffffffffff16146115be576040517f08c379a00000000000000000000000000000000000000000000000000000000081526004016115b59061334b565b60405180910390fd5b565b6000600760009054906101000a900473ffffffffffffffffffffffffffffffffffffffff16905081600760006101000a81548173ffffffffffffffffffffffffffffffffffffffff021916908373ffffffffffffffffffffffffffffffffffffffff1602179055508173ffffffffffffffffffffffffffffffffffffffff168173ffffffffffffffffffffffffffffffffffffffff167f8be0079c531659141344cd1fd0a4f28419497f9722a3daafe3b4186f6b6457e060405160405180910390a35050565b8173ffffffffffffffffffffffffffffffffffffffff168373ffffffffffffffffffffffffffffffffffffffff16036116f4576040517f08c379a00000000000000000000000000000000000000000000000000000000081526004016116eb906133b7565b60405180910390fd5b80600560008573ffffffffffffffffffffffffffffffffffffffff1673ffffffffffffffffffffffffffffffffffffffff16815260200190815260200160002060008473ffffffffffffffffffffffffffffffffffffffff1673ffffffffffffffffffffffffffffffffffffffff16815260200190815260200160002060006101000a81548160ff0219169083151502179055508173ffffffffffffffffffffffffffffffffffffffff168373ffffffffffffffffffffffffffffffffffffffff167f17307eab39ab6107e8899845ad3d59bd9653f200f220920489ca2b5937696c31836040516117e59190612208565b60405180910390a3505050565b6117fd84848461120c565b61180984848484611ae9565b611848576040517f08c379a000000000000000000000000000000000000000000000000000000000815260040161183f90613449565b60405180910390fd5b50505050565b606060405180602001604052806000815250905090565b60606118708261106b565b600061187a61184e565b9050600081511161189a57604051806020016040528060008152506118c5565b806118a484611c70565b6040516020016118b5929190612e69565b6040516020818303038152906040525b915050919050565b6001816000016000828254019250508190555050565b600081600001549050919050565b61190b828260405180602001604052806000815250611d3e565b5050565b6119188261197c565b611957576040517f08c379a000000000000000000000000000000000000000000000000000000000815260040161194e906134db565b60405180910390fd5b806006600084815260200190815260200160002090816119779190613039565b505050565b60008073ffffffffffffffffffffffffffffffffffffffff1661199e83611505565b73ffffffffffffffffffffffffffffffffffffffff1614159050919050565b6001811115611add57600073ffffffffffffffffffffffffffffffffffffffff168473ffffffffffffffffffffffffffffffffffffffff1614611a515780600360008673ffffffffffffffffffffffffffffffffffffffff1673ffffffffffffffffffffffffffffffffffffffff1681526020019081526020016000206000828254611a4991906134fb565b925050819055505b600073ffffffffffffffffffffffffffffffffffffffff168373ffffffffffffffffffffffffffffffffffffffff1614611adc5780600360008573ffffffffffffffffffffffffffffffffffffffff1673ffffffffffffffffffffffffffffffffffffffff1681526020019081526020016000206000828254611ad4919061352f565b925050819055505b5b50505050565b50505050565b6000611b0a8473ffffffffffffffffffffffffffffffffffffffff16611d99565b15611c63578373ffffffffffffffffffffffffffffffffffffffff1663150b7a02611b336110b6565b8786866040518563ffffffff1660e01b8152600401611b5594939291906135b8565b6020604051808303816000875af1925050508015611b9157506040513d601f19601f82011682018060405250810190611b8e9190613619565b60015b611c13573d8060008114611bc1576040519150601f19603f3d011682016040523d82523d6000602084013e611bc6565b606091505b506000815103611c0b576040517f08c379a0000000000000000000000000000000000000000000000000000000008152600401611c0290613449565b60405180910390fd5b805181602001fd5b63150b7a0260e01b7bffffffffffffffffffffffffffffffffffffffffffffffffffffffff1916817bffffffffffffffffffffffffffffffffffffffffffffffffffffffff191614915050611c68565b600190505b949350505050565b606060006001611c7f84611dbc565b01905060008167ffffffffffffffff811115611c9e57611c9d612745565b5b6040519080825280601f01601f191660200182016040528015611cd05781602001600182028036833780820191505090505b509050600082602001820190505b600115611d33578080600190039150507f3031323334353637383961626364656600000000000000000000000000000000600a86061a8153600a8581611d2757611d26613646565b5b04945060008503611cde575b819350505050919050565b611d488383611f0f565b611d556000848484611ae9565b611d94576040517f08c379a0000000000000000000000000000000000000000000000000000000008152600401611d8b90613449565b60405180910390fd5b505050565b6000808273ffffffffffffffffffffffffffffffffffffffff163b119050919050565b600080600090507a184f03e93ff9f4daa797ed6e38ed64bf6a1f0100000000000000008310611e1a577a184f03e93ff9f4daa797ed6e38ed64bf6a1f0100000000000000008381611e1057611e0f613646565b5b0492506040810190505b6d04ee2d6d415b85acef81000000008310611e57576d04ee2d6d415b85acef81000000008381611e4d57611e4c613646565b5b0492506020810190505b662386f26fc100008310611e8657662386f26fc100008381611e7c57611e7b613646565b5b0492506010810190505b6305f5e1008310611eaf576305f5e1008381611ea557611ea4613646565b5b0492506008810190505b6127108310611ed4576127108381611eca57611ec9613646565b5b0492506004810190505b60648310611ef75760648381611eed57611eec613646565b5b0492506002810190505b600a8310611f06576001810190505b80915050919050565b600073ffffffffffffffffffffffffffffffffffffffff168273ffffffffffffffffffffffffffffffffffffffff1603611f7e576040517f08c379a0000000000000000000000000000000000000000000000000000000008152600401611f75906136c1565b60405180910390fd5b611f878161197c565b15611fc7576040517f08c379a0000000000000000000000000000000000000000000000000000000008152600401611fbe9061372d565b60405180910390fd5b611fd56000838360016119bd565b611fde8161197c565b1561201e576040517f08c379a00000000000000000000000000000000000000000000000000000000081526004016120159061372d565b60405180910390fd5b6001600360008473ffffffffffffffffffffffffffffffffffffffff1673ffffffffffffffffffffffffffffffffffffffff16815260200190815260200160002060008282540192505081905550816002600083815260200190815260200160002060006101000a81548173ffffffffffffffffffffffffffffffffffffffff021916908373ffffffffffffffffffffffffffffffffffffffff160217905550808273ffffffffffffffffffffffffffffffffffffffff16600073ffffffffffffffffffffffffffffffffffffffff167fddf252ad1be2c89b69c2b068fc378daa952ba7f163c4a11628f55a4df523b3ef60405160405180910390a4612128600083836001611ae3565b5050565b6040518060800160405280600081526020016060815260200160008152602001600081525090565b6000604051905090565b600080fd5b600080fd5b60007fffffffff0000000000000000000000000000000000000000000000000000000082169050919050565b61219d81612168565b81146121a857600080fd5b50565b6000813590506121ba81612194565b92915050565b6000602082840312156121d6576121d561215e565b5b60006121e4848285016121ab565b91505092915050565b60008115159050919050565b612202816121ed565b82525050565b600060208201905061221d60008301846121f9565b92915050565b600081519050919050565b600082825260208201905092915050565b60005b8381101561225d578082015181840152602081019050612242565b60008484015250505050565b6000601f19601f8301169050919050565b600061228582612223565b61228f818561222e565b935061229f81856020860161223f565b6122a881612269565b840191505092915050565b600060208201905081810360008301526122cd818461227a565b905092915050565b6000819050919050565b6122e8816122d5565b81146122f357600080fd5b50565b600081359050612305816122df565b92915050565b6000602082840312156123215761232061215e565b5b600061232f848285016122f6565b91505092915050565b600073ffffffffffffffffffffffffffffffffffffffff82169050919050565b600061236382612338565b9050919050565b61237381612358565b82525050565b600060208201905061238e600083018461236a565b92915050565b61239d81612358565b81146123a857600080fd5b50565b6000813590506123ba81612394565b92915050565b600080604083850312156123d7576123d661215e565b5b60006123e5858286016123ab565b92505060206123f6858286016122f6565b9150509250929050565b6000806000606084860312156124195761241861215e565b5b6000612427868287016123ab565b9350506020612438868287016123ab565b9250506040612449868287016122f6565b9150509250925092565b6000602082840312156124695761246861215e565b5b6000612477848285016123ab565b91505092915050565b600081519050919050565b600082825260208201905092915050565b6000819050602082019050919050565b6124b5816122d5565b82525050565b600082825260208201905092915050565b60006124d782612223565b6124e181856124bb565b93506124f181856020860161223f565b6124fa81612269565b840191505092915050565b600060808301600083015161251d60008601826124ac565b506020830151848203602086015261253582826124cc565b915050604083015161254a60408601826124ac565b50606083015161255d60608601826124ac565b508091505092915050565b60006125748383612505565b905092915050565b6000602082019050919050565b600061259482612480565b61259e818561248b565b9350836020820285016125b08561249c565b8060005b858110156125ec57848403895281516125cd8582612568565b94506125d88361257c565b925060208a019950506001810190506125b4565b50829750879550505050505092915050565b600060208201905081810360008301526126188184612589565b905092915050565b612629816122d5565b82525050565b60006020820190506126446000830184612620565b92915050565b600060808301600083015161266260008601826124ac565b506020830151848203602086015261267a82826124cc565b915050604083015161268f60408601826124ac565b5060608301516126a260608601826124ac565b508091505092915050565b600060208201905081810360008301526126c7818461264a565b905092915050565b6126d8816121ed565b81146126e357600080fd5b50565b6000813590506126f5816126cf565b92915050565b600080604083850312156127125761271161215e565b5b6000612720858286016123ab565b9250506020612731858286016126e6565b9150509250929050565b600080fd5b600080fd5b7f4e487b7100000000000000000000000000000000000000000000000000000000600052604160045260246000fd5b61277d82612269565b810181811067ffffffffffffffff8211171561279c5761279b612745565b5b80604052505050565b60006127af612154565b90506127bb8282612774565b919050565b600067ffffffffffffffff8211156127db576127da612745565b5b6127e482612269565b9050602081019050919050565b82818337600083830152505050565b600061281361280e846127c0565b6127a5565b90508281526020810184848401111561282f5761282e612740565b5b61283a8482856127f1565b509392505050565b600082601f8301126128575761285661273b565b5b8135612867848260208601612800565b91505092915050565b6000806000806080858703121561288a5761288961215e565b5b6000612898878288016123ab565b94505060206128a9878288016123ab565b93505060406128ba878288016122f6565b925050606085013567ffffffffffffffff8111156128db576128da612163565b5b6128e787828801612842565b91505092959194509250565b6000806040838503121561290a5761290961215e565b5b6000612918858286016123ab565b9250506020612929858286016123ab565b9150509250929050565b600067ffffffffffffffff82111561294e5761294d612745565b5b61295782612269565b9050602081019050919050565b600061297761297284612933565b6127a5565b90508281526020810184848401111561299357612992612740565b5b61299e8482856127f1565b509392505050565b600082601f8301126129bb576129ba61273b565b5b81356129cb848260208601612964565b91505092915050565b600080600080608085870312156129ee576129ed61215e565b5b60006129fc878288016123ab565b945050602085013567ffffffffffffffff811115612a1d57612a1c612163565b5b612a29878288016129a6565b9350506040612a3a878288016122f6565b925050606085013567ffffffffffffffff811115612a5b57612a5a612163565b5b612a67878288016129a6565b91505092959194509250565b7f4e487b7100000000000000000000000000000000000000000000000000000000600052602260045260246000fd5b60006002820490506001821680612aba57607f821691505b602082108103612acd57612acc612a73565b5b50919050565b7f4552433732313a20617070726f76616c20746f2063757272656e74206f776e6560008201527f7200000000000000000000000000000000000000000000000000000000000000602082015250565b6000612b2f60218361222e565b9150612b3a82612ad3565b604082019050919050565b60006020820190508181036000830152612b5e81612b22565b9050919050565b7f4552433732313a20617070726f76652063616c6c6572206973206e6f7420746f60008201527f6b656e206f776e6572206f7220617070726f76656420666f7220616c6c000000602082015250565b6000612bc1603d8361222e565b9150612bcc82612b65565b604082019050919050565b60006020820190508181036000830152612bf081612bb4565b9050919050565b7f4552433732313a2063616c6c6572206973206e6f7420746f6b656e206f776e6560008201527f72206f7220617070726f76656400000000000000000000000000000000000000602082015250565b6000612c53602d8361222e565b9150612c5e82612bf7565b604082019050919050565b60006020820190508181036000830152612c8281612c46565b9050919050565b7f4e487b7100000000000000000000000000000000000000000000000000000000600052603260045260246000fd5b7f4e487b7100000000000000000000000000000000000000000000000000000000600052601160045260246000fd5b6000612cf2826122d5565b91507fffffffffffffffffffffffffffffffffffffffffffffffffffffffffffffffff8203612d2457612d23612cb8565b5b600182019050919050565b7f4552433732313a20696e76616c696420746f6b656e2049440000000000000000600082015250565b6000612d6560188361222e565b9150612d7082612d2f565b602082019050919050565b60006020820190508181036000830152612d9481612d58565b9050919050565b7f4552433732313a2061646472657373207a65726f206973206e6f74206120766160008201527f6c6964206f776e65720000000000000000000000000000000000000000000000602082015250565b6000612df760298361222e565b9150612e0282612d9b565b604082019050919050565b60006020820190508181036000830152612e2681612dea565b9050919050565b600081905092915050565b6000612e4382612223565b612e4d8185612e2d565b9350612e5d81856020860161223f565b80840191505092915050565b6000612e758285612e38565b9150612e818284612e38565b91508190509392505050565b60008190508160005260206000209050919050565b60006020601f8301049050919050565b600082821b905092915050565b600060088302612eef7fffffffffffffffffffffffffffffffffffffffffffffffffffffffffffffffff82612eb2565b612ef98683612eb2565b95508019841693508086168417925050509392505050565b6000819050919050565b6000612f36612f31612f2c846122d5565b612f11565b6122d5565b9050919050565b6000819050919050565b612f5083612f1b565b612f64612f5c82612f3d565b848454612ebf565b825550505050565b600090565b612f79612f6c565b612f84818484612f47565b505050565b5b81811015612fa857612f9d600082612f71565b600181019050612f8a565b5050565b601f821115612fed57612fbe81612e8d565b612fc784612ea2565b81016020851015612fd6578190505b612fea612fe285612ea2565b830182612f89565b50505b505050565b600082821c905092915050565b600061301060001984600802612ff2565b1980831691505092915050565b60006130298383612fff565b9150826002028217905092915050565b61304282612223565b67ffffffffffffffff81111561305b5761305a612745565b5b6130658254612aa2565b613070828285612fac565b600060209050601f8311600181146130a35760008415613091578287015190505b61309b858261301d565b865550613103565b601f1984166130b186612e8d565b60005b828110156130d9578489015182556001820191506020850194506020810190506130b4565b868310156130f657848901516130f2601f891682612fff565b8355505b6001600288020188555050505b505050505050565b60006060820190508181036000830152613125818661227a565b90506131346020830185612620565b6131416040830184612620565b949350505050565b7f4f776e61626c653a206e6577206f776e657220697320746865207a65726f206160008201527f6464726573730000000000000000000000000000000000000000000000000000602082015250565b60006131a560268361222e565b91506131b082613149565b604082019050919050565b600060208201905081810360008301526131d481613198565b9050919050565b7f4552433732313a207472616e736665722066726f6d20696e636f72726563742060008201527f6f776e6572000000000000000000000000000000000000000000000000000000602082015250565b600061323760258361222e565b9150613242826131db565b604082019050919050565b600060208201905081810360008301526132668161322a565b9050919050565b7f4552433732313a207472616e7366657220746f20746865207a65726f2061646460008201527f7265737300000000000000000000000000000000000000000000000000000000602082015250565b60006132c960248361222e565b91506132d48261326d565b604082019050919050565b600060208201905081810360008301526132f8816132bc565b9050919050565b7f4f776e61626c653a2063616c6c6572206973206e6f7420746865206f776e6572600082015250565b600061333560208361222e565b9150613340826132ff565b602082019050919050565b6000602082019050818103600083015261336481613328565b9050919050565b7f4552433732313a20617070726f766520746f2063616c6c657200000000000000600082015250565b60006133a160198361222e565b91506133ac8261336b565b602082019050919050565b600060208201905081810360008301526133d081613394565b9050919050565b7f4552433732313a207472616e7366657220746f206e6f6e20455243373231526560008201527f63656976657220696d706c656d656e7465720000000000000000000000000000602082015250565b600061343360328361222e565b915061343e826133d7565b604082019050919050565b6000602082019050818103600083015261346281613426565b9050919050565b7f45524337323155524953746f726167653a2055524920736574206f66206e6f6e60008201527f6578697374656e7420746f6b656e000000000000000000000000000000000000602082015250565b60006134c5602e8361222e565b91506134d082613469565b604082019050919050565b600060208201905081810360008301526134f4816134b8565b9050919050565b6000613506826122d5565b9150613511836122d5565b925082820390508181111561352957613528612cb8565b5b92915050565b600061353a826122d5565b9150613545836122d5565b925082820190508082111561355d5761355c612cb8565b5b92915050565b600081519050919050565b600082825260208201905092915050565b600061358a82613563565b613594818561356e565b93506135a481856020860161223f565b6135ad81612269565b840191505092915050565b60006080820190506135cd600083018761236a565b6135da602083018661236a565b6135e76040830185612620565b81810360608301526135f9818461357f565b905095945050505050565b60008151905061361381612194565b92915050565b60006020828403121561362f5761362e61215e565b5b600061363d84828501613604565b91505092915050565b7f4e487b7100000000000000000000000000000000000000000000000000000000600052601260045260246000fd5b7f4552433732313a206d696e7420746f20746865207a65726f2061646472657373600082015250565b60006136ab60208361222e565b91506136b682613675565b602082019050919050565b600060208201905081810360008301526136da8161369e565b9050919050565b7f4552433732313a20746f6b656e20616c7265616479206d696e74656400000000600082015250565b6000613717601c8361222e565b9150613722826136e1565b602082019050919050565b600060208201905081810360008301526137468161370a565b905091905056fea2646970667358221220b929b456e0cbaa0685bf50a8521dbbb2ec383a243c08baf0a5e8a30691b76ec264736f6c63430008140033",
  "linkReferences": {},
  "deployedLinkReferences": {}
}